:020000040800F2
:1000000000000120C5020008CB020008CF02000852
:1000100041030008450300088D03000800000000AC
:10002000000000000000000000000000D5030008F0
:10003000D903000800000000DD030008E103000808
:10004000F1030008F1030008F1030008F1030008C0
:10005000F1030008F1030008F1030008F1030008B0
:10006000F1030008F1030008F1030008F1030008A0
:10007000F1030008F1030008F1030008F103000890
:10008000F1030008F1030008F1030008000000007C
:10009000000000000000000000000000F103000864
:1000A000F1030008F1030008F1030008F103000860
:1000B000F1030008F1030008F1030008F103000850
:1000C000F1030008F1030008F1030008F103000840
:1000D000F1030008F1030008F1030008000000002C
:1000E000F1030008F1030008F1030008000000001C
:1000F000000000000000000000000000F103000804
:1001000000000000F1030008F1030008F1030008FB
:1001100000000000000000000000000000000000DF
:10012000F1030008F1030008F1030008F1030008DF
:10013000F1030008000000000000000000000000C3
:10014000000000000000000000000000F1030008B3
:10015000F1030008F1030008F1030008F1030008AF
:10016000F1030008F1030008000000000000000097
:10017000000000000000000000000000000000007F
:1001800000000000F1030008000000000000000073
:10019000F103000800B583B000F046FE384B394A41
:1001A0001360394A1360394900E02146384B9942BF
:1001B0000BD20A684B6801F10C0488689842F4D9A4
:1001C0001168196004330432F8E72E4B1A68314B7A
:1001D0009A4200D0FEE72C4B1A682F4B9A42F9D175
:1001E000274B2E4A13602E4A13602E4B05E0002049
:1001F000106004329342FAD80B462B4A934204D241
:10020000194651F8082B5B68F4E7244B1B6813B9B7
:10021000234B1B6803B1FEE701F068F8694601A8AB
:1002200000F094FD214C224BE41AA4100025AC42AE
:1002300014DC204C204BE41AA4100025AC4213DC43
:100240000099019801F05AF805461C4C1C4BE41A21
:10025000A410002C0EDC284600F04AFD144B53F885
:10026000253098470135E2E7134B53F8253098477E
:100270000135E3E7013C124B53F824309847E8E797
:10028000BABADECA0000002074000020F40300089F
:100290000C04000878563412325476987800002006
:1002A000140100200C0400081C0400081C040008B1
:1002B0001C0400081C0400081C0400081C0400089E
:1002C0001C04000808B5FFF765FF00BEFEE71EF03E
:1002D000040F0CBFEFF30880EFF309807146414A29
:1002E00010472DE9F04182B004468846124B5E6B00
:1002F0009F6B9D6A1B6B13F0020F03D00E4BDB6AE2
:10030000002B0CDB0D4800F033FDCDF800803B46A0
:1003100032462946204600F093FD00BEFEE74BF62C
:10032000AB6100F007FE0028ECD0034B4FF0004219
:10033000DA6202B0BDE8F08100ED00E0781E00084E
:1003400000BEFEE71EF0040F0CBFEFF30880EFF3D2
:1003500009807146244A10472DE9F04182B00446D5
:100360008846084B5E6B9F6B9D6A074800F000FD56
:10037000CDF800803B4632462946204600F060FD1D
:1003800000BEFEE700ED00E0881E00081EF0040F2E
:100390000CBFEFF30880EFF309807146134A104752
:1003A0002DE9F04182B004468846084B5E6B9F6B96
:1003B0009D6A074800F0DCFCCDF800803B463246E1
:1003C0002946204600F03CFD00BEFEE700ED00E0BF
:1003D000941E000800BEFEE700BEFEE700BEFEE77A
:1003E00070470000E302000859030008A103000859
:0403F00000BEFEE766
:1003F40004230208000000207800002004230208DF
:1004040000000010000000107800002018010020F7
:080414000000001000000010C0
:1004200010B50446074B1868074BA3FB0030800942
:1004300000F090F8002221464FF0FF3000F044F821
:10044000002010BD0C000020D34D621008B50B4BEE
:100450001A6842F400721A601A6842F480621A60E4
:100460001A6842F480721A60032000F00FF80F201F
:10047000FFF7D6FF00F098FF002008BD003C0240C7
:10048000014B1868704700BF0C01002010B50446EE
:10049000C31E042B0FD80A4AD36823F4E0631B045D
:1004A0001B0C240204F4E064234343F0BF6343F4D1
:1004B0000033D36010BDA421024800F04FFCEAE7EE
:1004C00000ED00E0A81C000870B505460C46164675
:1004D0000F2A25D80F2C28D81B4BDB68C3F3022327
:1004E000C3F10702042A28BF0422191D062921D9B5
:1004F000033B4FF0FF3101FA02F224EA02049C4070
:1005000001FA03F326EA03063443002D14DB240129
:10051000E4B205F1604505F5614585F8004370BD1D
:10052000BC210A4800F01AFCD4E7BD21074800F0BE
:1005300015FCD1E70023DCE705F00F052401E4B248
:10054000034B5C55EBE700BF00ED00E0A81C000882
:1005500014ED00E00138B0F1807F0AD2064B5860FC
:10056000064AF02182F823100020986007221A60C2
:1005700070470120704700BF10E000E000ED00E090
:1005800010B50446042800D038B9042C0BD0094A11
:10059000136823F00403136010BD40F2B311064842
:1005A00000F0DCFBF1E7034A136843F00403136037
:1005B000F2E700BF10E000E0A81C000830B583B0EF
:1005C000044603680F2B29D8236813F0010F3DD090
:1005D0006368012B01D9052B25D1A34B9B6803F040
:1005E0000C03042B29D0A04B9B6803F00C03082BB1
:1005F0001ED022799D4B1A706368002B50D0FFF7F4
:100600003FFF0546984B1B6813F4003F1ED1FFF7D0
:1006100037FF401B6428F5D90320E3E1F521944816
:1006200000F09CFBD0E7FA21914800F097FBD4E75B
:100630008D4B5B6813F4800FDBD08B4B1B6813F47E
:10064000003F03D06368002B00F0C981236813F0DA
:10065000020F5DD0E368012B31D823691F2B34D8FA
:10066000814B9B6813F00C0F3AD07F4B9B6803F0D3
:100670000C03082B2FD0E368002B74D07D4B012294
:100680001A60FFF7FDFE0546774B1B6813F0020F5B
:100690005AD1FFF7F5FE401B0228F5D90320A1E14E
:1006A000FFF7EEFE0546704B1B6813F4003FCDD0FC
:1006B000FFF7E6FE401B6428F5D9032092E14FF4D2
:1006C00096716B4800F04AFBC7E740F22D1168486D
:1006D00000F044FBC4E7644B5B6813F4800FCAD19D
:1006E000614B1B6813F0020F04D0E368012B01D0AB
:1006F000012077E15C48036823F0F8032169F822C0
:1007000092FAA2F2B2FA82F201FA02F21343036001
:10071000236813F0080F50D06369012B35D8636943
:10072000002B38D0544B01221A60FFF7A9FE054672
:100730004D4B5B6F13F0020F3FD1FFF7A1FE401B43
:100740000228F5D903204DE14748036823F0F80358
:100750002169F82292FAA2F2B2FA82F201FA02F2C6
:1007600013430360D4E7434B00221A60FFF788FE6F
:1007700005463D4B1B6813F0020FC9D0FFF780FE02
:10078000401B0228F5D903202CE140F26D113848B6
:1007900000F0E4FAC3E7384B00221A60FFF770FE5E
:1007A0000546314B5B6F13F0020F06D0FFF768FE72
:1007B000401B0228F5D9032014E1236813F0040F2D
:1007C00060D0A368012B01D9052B1FD10023019311
:1007D000254B1A6C42F080521A641B6C03F0805354
:1007E0000193019B254A136843F480731360FFF75C
:1007F00047FE0546214B1B6813F4807F0CD1FFF7A1
:100800003FFE401B0228F5D90320EBE040F2971190
:10081000174800F0A3FAD9E7227A194B1A70A36897
:1008200083B1FFF72DFE05460F4B1B6F13F0020F30
:1008300028D1FFF725FE401B41F288339842F3D9B7
:100840000320CFE0FFF71CFE0546074B1B6F13F09C
:10085000020F17D0FFF714FE401B41F28833984275
:10086000F3D90320BEE000BF003802400238024046
:10087000EC1C000800004742800E47420070004018
:1008800070380240A369022B39D8A369002B00F00D
:10089000A880564A926802F00C02082A00F0A48050
:1008A000022B40F08880E36913B1B3F5800F2CD19F
:1008B000236A3F2B2FD8636A323BB3F5BF7F30D812
:1008C000A36A022B05D0042B03D0062B01D0082BE2
:1008D0002DD1E36A043B0B2B2FD8454B00221A6025
:1008E000FFF7CEFD0546414B1B6813F0007F2AD071
:1008F000FFF7C6FD401B0228F5D9032072E04FF434
:10090000E6713C4800F02AFABFE740F2D5113948B9
:1009100000F024FACCE74FF4EB71364800F01EFAF1
:10092000C9E740F2D711334800F018FAC8E74FF48E
:10093000EC71304800F012FACBE740F2D9112D48A3
:1009400000F00CFAC9E7E369226A1343616A47F6CB
:10095000C07292FAA2F2B2FA82F201FA02F21343E0
:10096000A26A5208013A4FF4403191FAA1F1B1FA6A
:1009700081F18A401343E16A4FF0706292FAA2F269
:10098000B2FA82F201FA02F21343184A5360184B8A
:1009900001221A60FFF774FD0446144B1B6813F024
:1009A000007F06D1FFF76CFD001B0228F5D903205C
:1009B00018E0002016E00E4B00221A60FFF760FDE1
:1009C00004460A4B1B6813F0007F06D0FFF758FD62
:1009D000001B0228F5D9032004E0002002E00120DA
:1009E00000E0002003B030BD0120FBE700380240EA
:1009F00060004742EC1C0008214B9B6803F00C038D
:100A0000042B3AD0082B01D01E4870471C4B586865
:100A100000F03F005B6813F4800F1ED01A4AB2FB4F
:100A2000F0F2174B586847F6C073184093FAA3F3D7
:100A3000B3FA83F3D84000FB02F0114B5B6803F478
:100A400040334FF4403292FAA2F2B2FA82F2D3402B
:100A500001335B00B0FBF3F070470A4AB2FBF0F2DF
:100A6000074B586847F6C073184093FAA3F3B3FADC
:100A700083F3D84000FB02F0DFE70348704700BF74
:100A8000003802400024F40040787D0170B504462F
:100A90000D460368013B0E2B11D8072D15D88C4B42
:100AA0001B6803F00F03AB4215D2EBB2884A1370F8
:100AB000136803F00F03AB420DD0012070BD40F26C
:100AC0003721844800F04AF9E7E74FF40E71814876
:100AD00000F044F9E3E7236813F0020F18D0A3688D
:100AE0007BB1802B0DD0902B0BD0A02B09D0B02B3D
:100AF00007D0C02B05D0D02B03D0E02B01D0F02B9A
:100B000037D1754A936823F0F003A1680B439360D3
:100B1000236813F0010F73D06368032B2FD8636829
:100B2000012B32D09A1E012A36D96B4A126812F074
:100B3000020F00F0CA8068498A6822F0030213435A
:100B40008B60FFF79DFC06466368012B2BD0022BC0
:100B500038D0032B45D0604B9B6813F00C0F4FD05F
:100B6000FFF78EFC801B41F288339842F3D90320B3
:100B7000A4E740F24F21574800F0F0F8C1E740F2F7
:100B80005621544800F0EAF8C9E7534A126812F4B3
:100B9000003FD0D1012091E74F4A126812F0007F48
:100BA000C9D101208AE74C4B9B6803F00C03042B4E
:100BB00026D0FFF765FC801B41F288339842F2D9BA
:100BC00003207BE7444B9B6803F00C03082B17D0F2
:100BD000FFF756FC801B41F288339842F2D903207C
:100BE0006CE73D4B9B6803F00C030C2B08D0FFF720
:100BF00047FC801B41F288339842F2D903205DE71D
:100C0000334B1B6803F00F03AB4209D9EAB2304BF8
:100C10001A701B6803F00F03AB4201D001204DE7AF
:100C2000236813F0040F14D0E3685BB1B3F5805F61
:100C300008D0B3F5A05F05D0B3F5C05F02D0B3F51F
:100C4000E05F36D1244A936823F4E053E1680B4314
:100C50009360236813F0080F15D023695BB1B3F5D7
:100C6000805F08D0B3F5A05F05D0B3F5C05F02D0B8
:100C7000B3F5E05F23D1184A936823F460432169F8
:100C800043EAC1039360FFF7B7FE134B9B6803F081
:100C9000F003F02292FAA2F2B2FA82F2D3400F4AA3
:100CA000D35CD8400E4B18600F20FFF7B9FB002033
:100CB00004E74FF42D71074800F050F8C2E740F206
:100CC000BB21044800F04AF8D5E70120F6E600BF52
:100CD000003C0240EC1C000800380240DC1C00080C
:100CE0000C000020014B1868704700BF0C0000206A
:100CF000FEE7000008B5034800F052F80120FFF7B6
:100D0000F7FF00BF1C1D000808B503460C4A126817
:100D10005AB10B4A1068033323F003030344094A12
:100D2000934206D8064A136008BD054A0649116079
:100D3000EFE700F03BFB0C2303604FF0FF30F3E7DD
:100D40007C00002000FC002018010020012303602B
:100D5000014B0B60704700BF0400002008B50A4635
:100D60000146024800F004F8FFF7C4FF301D0008F8
:100D70000FB400B583B004AB53F8042B019380216A
:100D8000064800F04DFB002803DD0146034800F053
:100D900047F803B05DF804EB04B07047840000200E
:100DA00010B5044600F008FB0146204600F038F874
:100DB0000121024800F034F810BD00BFF41D000806
:100DC0002DE9F04385B004460F4643560BB10E465D
:100DD0001EE0042528462146ABBE0446384605B031
:100DE000BDE8F08314F9011B04AA1A4402F8101C90
:100DF0000133AB42F6D304AA1344002203F8102CAB
:100E00004FF00408E94640464946ABBE8046761B93
:100E1000002EE3D03546102E28BF10250023E8E72A
:100E200008B5FFF7CDFF08BD08B500F093F8024AFA
:100E3000024B9A6008BD00BF0000000800ED00E012
:100E4000F8B504460D4617461E462748FFF790FFA3
:100E500021682648FFF78CFF61682548FFF788FF67
:100E6000A1682448FFF784FFE1682348FFF780FF6B
:100E700021692248FFF77CFF61692148FFF778FF6D
:100E8000A1692048FFF774FFE1691F48FFF770FF71
:100E90001E48FFF76DFF29461D48FFF769FF1D4CEF
:100EA000E16A1D48FFF764FF216B1C48FFF760FFF4
:100EB000E16B1B48FFF75CFF15F0800F0AD115F4BA
:100EC000004F0CD11748FFF753FF06991648FFF75C
:100ED0004FFFF8BD39461548FFF74AFFEFE73146A7
:100EE0001348FFF745FFEDE75C1D00086C1D000887
:100EF0007C1D00088C1D00089C1D0008AC1D00080E
:100F0000BC1D0008CC1D0008DC1D0008EC1D0008FD
:100F1000F81D000800ED00E0081E0008181E00087B
:100F2000281E0008581E0008601E0008381E000811
:100F3000481E000883691A888A4201D00020704741
:100F40000268033A012A03D8023383610120704703
:100F5000002070470C4B1A6842F001021A60002111
:100F600099601A6822F0847222F480321A60074A6B
:100F70005A601A6822F480221A60D960044B4FF03C
:100F800000629A60704700BF0038024010300024B1
:100F900000ED00E0224B9B6803F00C03042B14D0FF
:100FA000082B16D01BB11F4B1F4A1A6002E01D4BC5
:100FB0001D4A1A601A4B9B68C3F303131B4AD15C8A
:100FC000184A1368CB4013607047164B184A1A60D2
:100FD000F0E7134B5A685B6803F03F0312F4800F8D
:100FE00013D0134AB2FBF3F20D4B5B68C3F38813C3
:100FF00003FB02F30A4A5268C2F301420132520073
:10100000B3FBF2F3074A1360D4E7074AB2FBF3F2EB
:10101000034B5B68C3F3881303FB02F3EAE700BFEB
:10102000003802400C0000200024F400A41E000838
:1010300040787D01012816D010B1022823D07047D6
:10104000012A09D042BB184803681031012202FA74
:1010500001F11943016070471348036802FA01F176
:10106000194301607047012A07D0AAB91031012342
:1010700003FA01F10D4B19607047012303FA01F1E6
:101080000A4B19607047012A07D02AB91031012391
:1010900003FA01F1064B19607047012303FA01F1CD
:1010A000034B1960704700BF18000240180402404B
:1010B0001808024001280CD010B1022812D0704745
:1010C0000D4A13681B0C1B0413601368194311604D
:1010D00070470A4A13681B0C1B04136013681943FA
:1010E00011607047064A13681B0C1B0413601368D9
:1010F00019431160704700BF000002400004024025
:101100000008024001280CD010B1022812D070470C
:101110000D4A13681B0C1B041360136819431160FC
:1011200070470A4A13681B0C1B04136013681943A9
:1011300011607047064A13681B0C1B041360136888
:1011400019431160704700BF0400024004040240CC
:101150000408024001280CD010B1022812D07047B8
:101160000D4A13681B0C1B041360136819431160AC
:1011700070470A4A13681B0C1B0413601368194359
:1011800011607047064A13681B0C1B041360136838
:1011900019431160704700BF080002400804024074
:1011A00008080240174B1A6842F001021A601A68D8
:1011B00022F480321A601A6822F080721A60114B91
:1011C0001B6813F0020FFAD00F4B1A6822F00102CD
:1011D0001A601A6822F002021A601A6822F0F002FD
:1011E0001A601A6842F080021A601A6822F4E0520B
:1011F0001A601A681A601A6822F460421A601A6843
:101200001A607047003802400838024001280BD0AD
:1012100010B1022810D070470B480368012202FA6F
:1012200001F119430160704708480368012202FA7E
:1012300001F119430160704705480368012202FA71
:1012400001F11943016070473038024040380240D4
:101250004438024070B594B000240194204B1A6CBD
:1012600042F080521A641B6C03F080530193019B7F
:1012700002941C4B1A6842F440421A601B6803F443
:1012800040430293029B0123089309934FF4800388
:101290000F93192310934FF4A873119304261296F9
:1012A0000723139302250E9508A8FFF787F90F234C
:1012B0000393049505944FF48053069307942946AD
:1012C00003A8FFF7E3FBFFF70DFD074BA3FB00307F
:1012D0008009FFF73FF93046FFF752F914B070BDAF
:1012E0000038024000700040D34D621008B5FFF78F
:1012F000ADF8FFF7AFFFFFF74DFE08BD38B5FFF7BC
:1013000051FF00210846FFF781FF45F255510020AB
:10131000FFF7D0FE00210846FFF7F4FE0021084643
:10132000FFF718FF002505E000BF0133DBB29F2B5C
:10133000FAD901351A4B9D42F4D81A4B5C5D04F082
:10134000010200210846FFF775FEC4F340020121A7
:101350000020FFF76FFEC4F3800202210020FFF798
:1013600069FEC4F3C00203210020FFF763FEC4F34B
:10137000001204210020FFF75DFEC4F34012052196
:101380000020FFF757FEC4F3801206210020FFF76C
:1013900051FEE20907210020FFF74CFE0023C6E7BB
:1013A0001C040200B41E000870470000014B1868BE
:1013B000704700BF10000020034613F8012B002ADD
:1013C000FBD1181A0138704730B5141E05469BB082
:1013D000184605DA8B232B604FF0FF301BB030BD71
:1013E0004FF40273ADF80C3014BF04F1FF33234601
:1013F000029305934FF6FF7300910491ADF80E3000
:1014000002461E9B6946284600F072F8431CBCBF8A
:101410008B232B60002CE1D0009B00221A70DDE7AB
:1014200007B5009313460A46014603480068FFF7D4
:10143000CBFF03B05DF804FB100000202DE9F0475E
:101440008E689E4282460C469046994637D88A89D5
:1014500012F4906F31D0256809696F1A656902230B
:1014600005EB450595FBF3F509F101033B449D426E
:1014700038BF1D46530530D5294600F07BFB064694
:1014800050B90C23CAF80030A38943F04003A3816C
:101490004FF0FF30BDE8F0873A46216900F0F8FAD6
:1014A000A38923F4906343F08003A38126616561DF
:1014B0003E44ED1B2660A5604E464E4500D94E4683
:1014C00032464146206800F0EEFAA3689B1BA360F9
:1014D00023681E4426600020DCE72A4600F0A4FBB7
:1014E00006460028E2D12169504600F0F5FAC8E727
:1014F0002DE9F04F9DB0804603938B891D060C4665
:1015000016460FD50B696BB9402100F033FB206004
:10151000206128B90C23C8F800304FF0FF30C7E035
:10152000402363610023099320238DF82930302361
:101530008DF82A304FF0010B37463D4615F8013B38
:101540000BB1252B3ED1B7EB060A0BD053463246E2
:1015500021464046FFF772FF013000F0A480099B4E
:10156000534409933B78002B00F09D8000234FF0FB
:10157000FF32CDE90523049307938DF853301A9376
:101580002F46052217F8011B4F4800F031FA049B43
:10159000D0B9D90644BF20228DF853201A0744BF82
:1015A0002B228DF853202A782A2A15D0079A2F4605
:1015B00000200A25394611F8013B303B092B4DD953
:1015C000B8B10FE02F46B8E73F4A801A0BFA00F097
:1015D000184304903D46D3E7039A111D1268039106
:1015E000002A01DB079204E0524243F00203079213
:1015F00004933B782E2B0CD17B782A2B33D1039B81
:101600001A1D1B680392002BB8BF4FF0FF3302373F
:1016100005932E4D39780322284600F0E9F938B1B8
:101620004023401B03FA00F0049B0343013704935B
:10163000397827488DF8281006227E1C00F0D8F94A
:10164000002838D0234B13BB039B073323F0070339
:1016500008330393099B4B4409936DE705FB023262
:1016600001200F46A6E700230137059319460A25F6
:10167000384610F8012B303A092A03D9002BC8D07C
:101680000591C6E705FB012101230746F0E703ABFF
:1016900000932246104B04A94046AFF30080B0F1FE
:1016A000FF3F8146D6D1A3895B063FF536AF099847
:1016B0001DB0BDE8F08F03AB00932246064B04A992
:1016C000404600F081F8EAE7D1220208D72202085A
:1016D000DB220208000000003D1400082DE9F0475D
:1016E00091461F468A680B69DDF820809342B8BF97
:1016F0001346C9F8003091F8432006460C4612B153
:101700000133C9F800302368990642BFD9F8003088
:101710000233C9F80030256815F0060507D104F139
:10172000190AE368D9F800209B1AAB4228DC94F828
:1017300043302268003318BF012392062DD404F1F0
:10174000430239463046C047013020D02368E5685F
:10175000D9F8002003F00603042B08BFAD1AA368D4
:1017600022690CBF25EAE57500259342C4BF9B1A88
:10177000ED184FF000091A344D451AD1002008E049
:101780000123524639463046C047013003D14FF05D
:10179000FF30BDE8F0870135C3E7E1185A1C30205F
:1017A00081F84300224494F8451082F84310023334
:1017B000C5E70123224639463046C0470130E6D00E
:1017C00009F10109D8E700002DE9F04301F1430CCC
:1017D0000C46097E85B06E291746064698460C9A37
:1017E00000F0B38022D8632936D00AD8002900F04F
:1017F000B980582900F0838004F1420584F8421032
:1018000032E0642901D06929F6D120681368050601
:1018100003F104012AD51B681160002B03DA2D2285
:101820005B4284F843206F480A2239E0732900F0B4
:101830009D8008D86F2920D07029DDD1236843F01E
:101840002003236003E0752917D07829D4D17823A9
:1018500084F84530644855E01368191D1B68116011
:1018600004F1420584F8423001238CE01B681160CA
:1018700010F0400F18BF1BB2CFE713682568181D82
:101880001060280601D51B6802E06806FBD51B889E
:1018900054486F2914BF0A220822002184F84310FB
:1018A0006568A560002DC0F29580216821F00401D3
:1018B0002160002B3DD1002D40F08E806546082A26
:1018C0000BD12368DB0708D5236962689A42DEBF23
:1018D000302305F8013C05F1FF35ACEB050323612E
:1018E000CDF800803B4603AA21463046FFF7F6FEBE
:1018F00001304DD14FF0FF3005B0BDE8F0833948DD
:1019000084F84510136821681D1D1B6815600A06C0
:101910000BD5CA0744BF41F0200121601BB92268E2
:1019200022F0200222601022B7E74D0648BF9BB28A
:10193000EFE76546B3FBF2F102FB1133C35C05F838
:10194000013D0B460029F5D1B9E7136825686169A7
:10195000181D106028061B6801D5196002E06A0690
:10196000FBD51980002323616546B9E71368191D6B
:1019700011601D6862680021284600F039F808B13E
:10198000401B606063682361002384F84330A7E74D
:1019900023692A4639463046C0470130AAD0236819
:1019A0009B0713D4E068039B9842B8BF1846A3E78F
:1019B00001234A4639463046C04701309AD00135A6
:1019C000E368039A9B1AAB42F2DCEBE7002504F1D3
:1019D0001909F5E7002BACD1037884F8423004F103
:1019E00042056CE7E2220208F32202080000000030
:1019F00001F0FF01102A2BDB10F0070F08D010F8C0
:101A0000013B013A8B422DD010F0070F42B3F6D1C3
:101A1000F0B441EA012141EA014122F007047FF0DC
:101A200000070023F0E80256083C85EA010586EA33
:101A3000010685FA47F5A3FA87F586FA47F6A5FA6F
:101A400087F68EB9EED1F0BC01F0FF0102F007027B
:101A500032B110F8013B013A83EA010313B1F8D126
:101A60000020704701387047002D06BF3546033807
:101A7000073815F0010F07D1013015F4807F02BF40
:101A8000013015F4C03F0130F0BC0138704700BF91
:101A900010B5431E0A44914200D110BD11F8014B0C
:101AA00003F8014FF7E7884210B501EB020307D8AE
:101AB000421E99420AD011F8014B02F8014FF8E793
:101AC0008342F5D98118D21AD34200D110BD13F840
:101AD000014D01F8014DF7E738B50546002945D01D
:101AE00051F8043C0C1F002BB8BFE41800F0D2F8EA
:101AF0001F4A1368104633B9636014602846BDE876
:101B0000384000F0C8B8A3420CD92168621893424B
:101B100004BF1A685B68636004BF521822600460E7
:101B2000ECE713465A680AB1A242FAD91968581864
:101B3000A0420BD120680144581882421960DDD1BF
:101B4000106852685A6001441960D7E702D90C2323
:101B50002B60D3E7206821188A4204BF11685268BD
:101B6000626004BF091821605C60C7E738BD00BF30
:101B70000401002070B5CD1C25F0030508350C2D9F
:101B800038BF0C25002D064601DBA94203D90C23E2
:101B90003360002070BD00F07DF8214A14682146B2
:101BA00091B9204C23681BB9304600F063F82060DF
:101BB0002946304600F05EF8431C24D10C233360E4
:101BC000304600F068F8E4E70B685B1B18D40B2B79
:101BD0000FD90B60CD50CC18304600F05CF804F102
:101BE0000B00231D20F00700C31AD3D05A42E25045
:101BF000D0E78C424B6816BF636013600C46EBE77E
:101C00000C464968CCE7C41C24F00304A04205D06C
:101C1000211A304600F02EF80130CFD02560DBE7E6
:101C20000401002008010020F8B5074614460E46BE
:101C300021B91146BDE8F840FFF79CBF22B9FFF774
:101C40004BFF25462846F8BD00F026F8A0420FD2EB
:101C500021463846FFF78EFF05460028F2D0314670
:101C60002246FFF715FF31463846FFF735FFE9E713
:101C70003546E7E738B5064C00230546084623609D
:101C8000FFF742F8431C02D1236803B12B6038BD33
:101C9000100100207047704751F8043C181F002BBA
:101CA000BCBF0B58C01870472E2E2F737973746504
:101CB0006D2F7372632F73746D333266342D6861C8
:101CC0006C2F73746D3332663478785F68616C5F43
:101CD000636F727465782E630000000000000000DE
:101CE0000102030401020304060708092E2E2F73C4
:101CF000797374656D2F7372632F73746D333266ED
:101D0000342D68616C2F73746D3332663478785F6C
:101D100068616C5F7263632E6300000061626F72C2
:101D20007428292C2065786974696E672E2E2E0020
:101D30006173736572745F706172616D28292066CA
:101D400061696C65643A2066696C6520222573229E
:101D50002C206C696E652025640A00005374616351
:101D60006B206672616D653A0A00000020523020D7
:101D70003D2020253038580A000000002052312034
:101D80003D2020253038580A000000002052322023
:101D90003D2020253038580A000000002052332012
:101DA0003D2020253038580A0000000020523132F2
:101DB000203D20253038580A00000000204C5220D9
:101DC0003D2020253038580A0000000020504320D4
:101DD0003D2020253038580A000000002050535282
:101DE000203D20253038580A000000004653522F6D
:101DF0004641523A0A0000002043465352203D20FB
:101E000020253038580A00002048465352203D20F3
:101E100020253038580A00002044465352203D20E7
:101E200020253038580A00002041465352203D20DA
:101E300020253038580A0000204D4D464152203DA3
:101E400020253038580A00002042464152203D20CB
:101E500020253038580A00004D6973630A000000DD
:101E6000204C522F4558435F52455455524E3D2009
:101E7000253038580A0000005B486172644661757D
:101E80006C745D0A000000005B4275734661756CFE
:101E9000745D0A005B55736167654661756C745DBE
:101EA0000A0000000000000000000000010203041E
:101EB00006070809736866595E5773AFB6A984723E
:101EC000756770709EC5BAA06A626F766B54536571
:101ED000636797A2A4896E75738689919C939D8F81
:101EE00086867878665C5A4B5692ACA78973806C6C
:101EF000716675A29F997B788B88806456575B5A70
:101F000096B5B39B66695C73858BA8A9A899837AFB
:101F1000727A7D7063605A87B3A6966A777464712B
:101F200078A6B2A7876872777B7A6F68614F66A5DB
:101F3000B5AD7E6F766A7A778C9B9B957A7B7F8135
:101F40007B6C5B524D5B949C9A877E9276737698FD
:101F5000B8A79A7F7B80727376786D524480AAB35B
:101F60009D748C817A7787B5AA957A6F817C766823
:101F70005755494781A9A791697B7C7F7D81AAAB91
:101F80009D877E877D766D68614A3C70A9AEAB8384
:101F9000897A6A73729CA29A8671797A807F70635B
:101FA000544180B8AD9C6C8283767877A5A6957BEA
:101FB000768C8882766C6A64537DB1B2A673706D3C
:101FC0006B6D6A98A8A7896F76757879756B55409F
:101FD00072AAA79D75838068696FA7AC977B6D888F
:101FE0008C84745E5F554279AAAB9766777C7F8557
:101FF00081AAA59A877E8D84877F72604A3F7AAADC
:102000009D9570828275747CB5BCAD8874837D7338
:10201000675855453E81A5A3916879777C7A83AA54
:10202000A4A5807683848374655F534A89A9A388B5
:10203000708D857B6E81A79E93787982838373638D
:10204000594F5A9CB6B492727B6C746B8FB3AA9D35
:102050007170727B81746B5D4B67A5AFA6858285BD
:1020600066656598A992887D8580796D645F584E14
:1020700078AFB4A8747378717C709FB1A88A6E79B8
:1020800076857D6C604F4C86A1998B6D826D6C7AE4
:102090008AB9AAA0857C88808474645C48488FB023
:1020A000BB9E738570706A84AFAAAB8B7974717DA7
:1020B00071574D4C71AEA59E7D6E76606B6898B180
:1020C0009C8C6E7F8482756266635A77ADB1A77E01
:1020D000716E6685879D9F9C997F6F687B7B695A2F
:1020E00056588CB9AD93657D796B6D76B9BFAA7B77
:1020F000697A7E7B666261555383A1B9A7766C606D
:10210000828B8D9D9EA784716A70755A504A49765C
:10211000B8B89E6E69837E867A9CB2A7916F7A81E9
:1021200085775D5B635F789AA3AA806B5D66827931
:102130009CA8AD937677727F756A66585184ACA57A
:10214000866981828981829D979A7B778A8B865C5A
:102150004652617B9BA5AC947972677B7A8A968A9A
:102160008C777C7671736F6F5F516DA5AFAE898090
:102170008172775F84A6AFA6797A83826E44455CCC
:10218000698CA6AB9F7E756770828CABA59C8F8790
:10219000867469595051596D99ACA18C6D6F7182DB
:1021A000898DA7A99E7D6D7E887963565852638E6E
:1021B000979E8477726D7D78ABCBCECDB2B3B2BB38
:1021C000B3988C8A8AB3C9CDCEAAAFA7ACB7B2D91F
:1021D000DAC8D2BECCBFA8936D6C7C87A3C3A58D93
:1021E00071674C5C555968484A382D30321F190BBD
:1021F0001B12205153654217261C1D25314B4941A6
:102200001F1A293F412D2338434C919FB7B5949B0A
:102210008DA59EB6D6CBD4BBC3C3AC978692A7A4DC
:10222000A5CDE8EACCA7A28C8F877FB5B7BB9985EF
:10223000837961413D3E58578D97988651504D6A3C
:10224000859BA7ADAE988683858E82766C6A6292F6
:10225000C5C1B98D9FB0A59F91AAC0CDB1989C9CD6
:10226000A78C7D817D7573A0ADC2AF8278687D73C8
:102270007889919B8C7C6D5E514E4842454E78A387
:102280009E9875908F74786EA4AF9F7D62788688D3
:102290006E5F6E736E6498C8CCAC7886899A8A7BC0
:1022A00098928D6558626776584A373C39438790D3
:1022B00098735C63473E28486D7168454E564939AE
:1022C000242C2A2C1B227078724F4A786A624A6743
:1022D0008E8C8975818E7C65474D59616376BEC849
:1022E000C79F82A1878B7C80AEB0A9887A8C8984B5
:1022F000665151444A4479B9B1A9838E9582797067
:10230000AAC6C3B2999C9D8C82829B9A9A9597E7A4
:10231000EAD6AE9DC2A99E949EC9C1B9A19BB492B2
:10232000846E6B7B5762607DC4AC957359704C4171
:1023300040518873706C6F7C677164595C47473E8D
:102340005DA29A8A695E765853566C9E9691817DFD
:10235000927971626F7D62634A63AAB4A681709AB2
:102360007D595C7ABEACA69D9DAC7B5D4E4D6454A0
:10237000485460B9CAA695799889737686C2B7948D
:1023800091829C90748091B89F807E6B9ECBB3A706
:10239000969F9F6A6D6A8CA68FA9A29F906B5C5FC7
:1023A000736A5E635870AC987B60445A4C5D676F8B
:1023B00098807D6B687E696250525B41332721644F
:1023C0007C8399778E785560507D8E93A38B947D16
:1023D0005F68616D69657F6F88BCB4A982829E82E7
:1023E000887D9CD6B8A7826F715567717178665FDA
:1023F000525192A59B8B687E635951437682939B81
:102400008B978F7564646E6769635580B6A1957DFF
:10241000738B82958199B3ABB08998AA9C948A8E6C
:10242000998F80585A9BACBEA78A94877F6269A215
:10243000AAB59D80876153433D4147614F5082A4B7
:102440009C7E5B6B6D68655E98A2A0928189818B92
:10245000938E7E6A63594680C1BFB18988927C742D
:102460006374898A9F8F90836E755A71675C705C04
:1024700079A39B8B6A5C705F897F86AFAFC9A5A487
:1024800091757C6F7B81696C556BA697AAA28F9121
:10249000727A676BAEA1B7A58C9C7484767369352C
:1024A000454D689F8E89845E735C5D7875977881F1
:1024B0007B64653939537172595C6365968D818D82
:1024C000849B7D6E7681A791889DB6B882707C854D
:1024D000826C6D748BBAB1A3AA9C9A6043506BB4A2
:1024E00095918F879250475681996E584B4F8C8D9E
:1024F0007B7878AE887F8B98CCA69B969DB8907D94
:102500007A849574584E74DCDEB0A090A07869741B
:102510008FD2BFB2A89DA8775D4F566B6D6E5B746E
:10252000B4AE846257826B6A636C8E6B6A57536574
:10253000615F59677059462040989F9A7C67795F20
:10254000584D699E9FB9A49A9D776E6B7C82777473
:102550006588C7B4A685708863777E93C1A9B19852
:10256000959D81898281755A574A67A39DA5948854
:10257000A37C7B6F79A191A9A4A39467665F696D21
:1025800058585679AFA89C7978835F707196BFAB25
:10259000AA95947A51576983775F6A6582B29BA640
:1025A0009493955E6E567E9F879E859487686B6830
:1025B00077654D58527CB59594716B73556F62A1D8
:1025C000B08E967B868068616F837E695F4E77A24E
:1025D0007B856B7E915D675D9296899788A88B72EB
:1025E0006C70735B4A4A4884B6A1A98193885C6C7D
:1025F0006AAEB4AEA794AB89766D738982786C5E4F
:1026000096B39A9D85AD9F7B8271AEA8978F7E937E
:102610007A756972806755464B9CC3AA99677B5C43
:102620003E484B90929A917781665A454E68666211
:102630005D4F91AA9491638572768179B29DA89C31
:102640008B988286838C8B786B5B4E92A9A6AC7E2E
:1026500094786F736EA6AEC2AF92896A63595D6358
:102660004F4D5A5399A79A9B648464696B67A093F2
:10267000A28E8286685B5B676C594C4C5397AFACFB
:10268000AC8DA27D6E7375A99D9E97A6A38573637D
:102690007D7C6F69707ABEC7AA9267795F595C7F4B
:1026A000B8ADA48A8C8B6F69637174645855559268
:1026B000A98F846E917A625763A3979A8A93A27DB9
:1026C000725F6F684D4243549CC1A39260786F6BF8
:1026D000878ABFB0A093797E68635F688273666003
:1026E0005687B09FA68E9F9D7F867E979A999387E7
:1026F000A29F816A575E5A5258627CB9AFAA9479F8
:10270000835C625E82ABA39978747C68696C77871E
:102710006C5358517E927E7E5F857768676497928E
:10272000878B89A08F726A5E625A575E5D81B4A002
:102730009E7C7680678380A0B7A4A08C94937969EF
:10274000617D8470615F608DA1A9AB92A7847A7767
:10275000738B797E7A7B93776D5C5B6C61606C7058
:1027600085A49AA4848B806C6E6398A195887C8DD7
:10277000816B686D807F6A5D626D9AA5A09595A456
:102780007C7B6A70969AA9A4A9AE907B6E6C655703
:102790004F55587A9B90937B887D6E7879989D9A57
:1027A000A0959080675D576F685F4F54545E84902A
:1027B0009E8589746E7B79868F95959FA290867190
:1027C0005F646173717B727DA0A3A9857270676974
:1027D00076868F95938C888B857F827F737A6C72D7
:1027E000695C878BA99A89886D775E627F91A29ACE
:1027F0008886837D6E626063727D7762788B938D4D
:102800007C94948F83768A9AA3917D7A77857B6274
:102810006065716763686B96ABA59C8E90827772DA
:10282000738B99A0998E9083756B676F7B786261CB
:102830005D5E819298989CA18580767D8B8EA09913
:10284000999E9487776C6560604F5D6A5A747A864A
:10285000918D9B8D8E908F9D9C958C838D87808490
:102860007C7267635C58626177959D9886847D77FA
:10287000746B7893A8A6A094838075757478817F13
:10288000746D5C5A737B7B7283847B7563728792F1
:10289000978E98A0988F756A645C5A576671677BAB
:1028A000828A9283878080857B838E8E96969C9584
:1028B00087887E8180696C6D7F83809D9EA39682D0
:1028C0007A726F6C6D86928E908788877B7A7F860E
:1028D0008B7E7B767169748084817C8782806C6951
:1028E0007F8E948C8D8B83836F6F75747665687D16
:1028F0007F8693939F8E867F808F899094918E8020
:102900007B7E77746E747B757675797B748C949E00
:10291000968382747B7A716E798E94877E7B7A6FD0
:102920006B6D70707072767176848483778F948CFF
:10293000816D8188888A869B9B937C656867685EC9
:10294000506675798A889690827F7F969E9F9F9425
:102950009289848171707987877A716D6E6C6373E7
:10296000838E938C9489857F747A8195A49A958BB4
:1029700084776E74757B7B6F6E646B7C777F6C6F16
:10298000797B8681848B9395969A9A92836F6F75E3
:10299000736F68686C798983858186887B7D7F9079
:1029A0009A98989295958078777A8884857D7C78B6
:1029B0007687879590847B72777674726E6F809439
:1029C00094887D7980787173787B6A6B7A898B7350
:1029D000716E68696A809399998A867B8CBFC8CC2E
:1029E000BB9F7D5E5C56728B8E9A88786B5965654D
:1029F0006F775E533C4873897C7995A0A1A0A9A705
:102A0000B8B59193886D614E5759636A555B819053
:102A100080796D707D77647D93AECAD6DCD1CDA709
:102A20007857484B504958636C7C775E59706061A9
:102A300072798FA7A28D999D9E97918F929C868285
:102A4000918C7F827E7B73717060637C8B8A99A787
:102A5000BEBFB6A8A3B29C7A6860617F816A6345F5
:102A60004A4B4C6159534E474B5E88B2B29E7F7EB3
:102A70007E6E606278818276768680685348514D9A
:102A800036343E4E738AA3ACA7BDACAABEB4BBA37A
:102A90008785868D8183859097847C665466716F67
:102AA000888373675E6D74989D9AB0A9B2B79B7561
:102AB0005958565061747E9BAEA295828B87838F46
:102AC00081919BA7A2A1A78F93938C88776A676750
:102AD000849DA1A47D75797776687D7A75889C8EB2
:102AE0007E6B5254626A61635D6A86927A5C534A75
:102AF0004C6160677D8888798690857E7661727C7E
:102B00006D5F5C7A7F888E91999D8A69768FA1AC82
:102B1000AAA8ABAB9E7B6F735E554D62828B978488
:102B20007E90898C7F76828081797274695C7081F5
:102B3000898D9575729C9FA78A81796C8683839510
:102B40009B9A959A9290897575797C7776809898FA
:102B50009D847C7563767396AA968A7E777273716C
:102B60007B938D7E82747C948789707873677A6B8F
:102B70007B776F7F7F7E7C5B54585D5E5E696C8D7A
:102B8000ABB1B2A5A2876E6A657C7C838392A6876F
:102B9000695D525B656659548190939697A38F82C5
:102BA0007771898D8F807F95808A8C869372665627
:102BB00061918B9A9F9BA6989C94A9BBACAAA29D5D
:102BC0008982736A747F746E6A85A296A67D6E721E
:102BD000677069838375786E78867C6E717A7060B1
:102BE0006958697563665D827D63656480858584E7
:102BF0007C887765675D655C708485C5C4B09B79AA
:102C000082787B7570999E9CAA9C907478755D699A
:102C1000615F4A4C818EA09C8992797378828F7B08
:102C20007A797983858E8B8273646D6775A2A39E92
:102C3000939C9C7F7C70849A969D908988828783E0
:102C4000797E8483748EA58D927F7E7A747F728C58
:102C50008C8C9A938F786A6D616B615658466E8C36
:102C60008C97777B70596D667F806F7368777D6D09
:102C70006B5B656469786F95998D917C817D7C89AA
:102C80007A91968A8F878172676D717163606A65C8
:102C90008DA09EA594A08E757E77837474858AA07E
:102CA0009E918B858374757D6F95A9A9AFA3A58A25
:102CB000848A849F9D949798987B7B7B75786B70B2
:102CC000685D808E8E917F8D725F6E70918681922D
:102CD0008283766F766F6A4F4D544870898A8D79FA
:102CE000856C5C6D68837D83989696827E806E6F1E
:102CF0007375766D98A69A9E8A93877C8482958652
:102D0000828D827F7266625F5E555E6B62829C9A84
:102D1000A394978164726D78838C9DA5A091858919
:102D2000856D5D5D696292B09AAB97999081969638
:102D3000B4AB96A2A7A58F8B9590867068685771E3
:102D40007D798B808D795D6B708A7E7F9E9992787C
:102D500062665D50465B6B58787B728073886853FF
:102D6000635D7D73758C89867076908F83746F71C7
:102D7000638C9C97AA94997D626A657F80849995FB
:102D8000867A74787D6C6D767A6D889B8B99899044
:102D900087758992A4957C9296958A7E8B82796DAF
:102DA0006D726BA7BCA6B09DAD96727A7998888635
:102DB000A09C94826F6C6E727171715D859681902A
:102DC0008BA08C686F667A75697F887D6D6165669A
:102DD0005960605543768E7C918291835D6A7390D1
:102DE0008C7C9E998589827F7767645F564B7AA138
:102DF000949C93A39773827A817F7D9B877F7B715D
:102E0000816E54626765578AA680908595877A9906
:102E100095A19697B5A7928985857C73777670641E
:102E20008BA291A793AA98769392AA9FA1B6A39BEF
:102E300090897D5F5C6264593D7392728084978152
:102E4000617B7983817D978E7C736F6F5D4F50536B
:102E50004E3D6D8866756F81745D878B938F96B1DB
:102E6000A7948F908D7C6F76776F5A879E75858C2F
:102E7000997B557B7C807881B0A69897948B7974E8
:102E800075695A4A87A77D979C9B7755848A938555
:102E900089B19A94918D89756F7478726494B486AF
:102EA000969A9E875D888C878082A48D787D7D79B7
:102EB0006C7482766353829E6481918D7B52726FB3
:102EC0006C6B6E908478807C6C666A7062514A7D0F
:102ED000A373808C8E794C727A767B81A0948B98C8
:102EE0008A78747E8A7B675684A36D859298804E1B
:102EF00070696F7680A18D818A8C7B5F6375726348
:102F00005DA1C293A4A6AA8F658C7F808694B5929A
:102F10008D99957D6D868C7C6A5B91B189A5ADB4E8
:102F2000976E99837B7A7498817E938A785D5F61CE
:102F3000564E41739C78989A8D7E567B635A6D7578
:102F4000926D6A8676614D5C6953554871996D8DB5
:102F5000A2A39F7396907E8A87A7918D9D8B857083
:102F600073725B57426D987A99A2958464888C7BC2
:102F7000898CA99684947F6F5E656F656A597CA67B
:102F8000829AA29A936E8E8D859691AD9D90A69D04
:102F900098867D7C696B6480AB8B9CAC9E926684CA
:102FA0008471817B978C7D958E8B7770735C61507B
:102FB0006A9775858C817C5C7975565A577D786ADD
:102FC00080817D686B7967563E5D90798FA5A9A059
:102FD000788D867374758F7B73868488787878692A
:102FE0005F55708C778A9FA38F70838682737A8AED
:102FF000776F7C899082808180705F8FA39B969A87
:10300000AD97899298987C859390948686867874FB
:10301000747C7274989C9E929BA38B8983938D7110
:103020007C8486776473685B554D60575866697910
:10303000758B8D8D917D887C7D82797C736E6F64BC
:103040006B6661644D5E717E8A95AC9D9B8E95A684
:10305000909A979C9B827978737567605C4A5E5EF4
:103060006D777F8F8195929AA28F968887857E8FC4
:103070008B79796A6C68597577838183A49CA79C46
:10308000A2B49CA59A9BA2968E827B7E7776746969
:10309000817E7C808D9D8B97949A9E858F8D8B826F
:1030A00074756C655F5D644E425D63716F7A8D838C
:1030B00084738792808980817D747364635E585ABB
:1030C00057657E7D7D778A958C9595AEA28F978882
:1030D0008B83787D7A796B696E575E6F787E7C9E84
:1030E000A09DA298A18E858C8D918180877878791A
:1030F00077795F667D767E849DA39A9C9BAF9C8A40
:10310000908686746F827B7F71626F5E697475834F
:10311000869D9996978FA18B82887E847B7470623E
:1031200066594F5A4C66776F7B809691878F8C9843
:10313000877B86858B74667063655E597162707B70
:103140006E76809DA5A19EA1B3A392968E876F6790
:10315000705F635E595E486475757F7BA1A5A09C16
:10316000A2B39A8E9393938E858D7A7B6F60614420
:10317000646B6C6D6F969D9F9BA4AC9A9895999C7F
:103180009599947E746C6A684C696F6E707BA09A96
:10319000968C93908381848A827D7F7C6F6E6A692E
:1031A0005E50687581807F8B878D80817F7A898171
:1031B00079777175716868636A615D8184888C9BB9
:1031C000AC94A39AA1A1878C8483786A767865678A
:1031D0006476786A81758992889594A7979091848E
:1031E0008D8C867F757B736B70626B5F546C687AB5
:1031F000808EA6919A959892777E82838476859127
:10320000837E6F7F6A607C6F878D8F9B98998388A0
:1032100088767B838C8172827D716D5B63555E7D68
:1032200074857F92A49099888877637A878C938538
:1032300082857D7C60695F5E7E76857993AA96A1A2
:103240008A91897C8D8A82726B72706F7A7A8162C0
:1032500065747586819190848F81908D7581737668
:103260006A6F837E7E7A777F646A837D8A87A6B45D
:10327000A0A39A9F9F7E8283847D687176726F611E
:1032800070645C746E8F8C9AADA1A182817E66742D
:1032900073767F737D7A717B6E72594B7375848000
:1032A0009BB1A79886969885767D837F6F6F766DA4
:1032B0006E61685E537578909098A19E9B83897724
:1032C00075797A7F81808287828477785C5776826D
:1032D000887F979F969A8D9D97868B7E847E727845
:1032E000767174656B5C5B7B858A7F8D8D8E947C3B
:1032F0008C866F7B7A8888888787847468605F5C37
:10330000798A8A8791A19C938C9F8B6B75818C8A1B
:10331000797A8B87726A7769505F838F89899098F1
:10332000877676716D646E8B897E838C8B827575E2
:103330006A55618D96999AA4A68482717574607895
:103340008C8E96909C907F756571424B8A7D8E9095
:103350009AB382705D627455698B98A393968F7D42
:1033600081716B584897A094B6A1BD986A6D6B7037
:10337000656D8B9E9E918C8C7C79685B553E80B18F
:1033800093B1A9AA8A454D5268646B91A09E8B8225
:103390008172756F595D4274B792ADA5A8A55E693B
:1033A0006E7D7C739CA69D957B787A6F71595D4B81
:1033B00064B295A0A0939A5256677088789BAF9795
:1033C000937E6E7C70655958555F9D97A9AC9AA7FE
:1033D0006363706C8B8097B69B8D8A7381827269F0
:1033E0005D4D4F918899A4889A5C566D6E8E818C44
:1033F000A6928B8776818B7666635E58969991ABA1
:1034000090A2785A7176999290AC9F917B6878845B
:10341000796964605A858874917D8270596A759063
:10342000888B9B98917B6A758583746058588D9CB6
:1034300087988B9F82606B7B9F929BACA3937360FA
:103440006B8485716F665790918694758E6E5D66FC
:103450006095968D9F979A8C686572817C665451B1
:1034600098A78B947A9E8E656A639B9C8B9F9DA484
:103470009970667B827A64584F91AA8486608486AC
:1034800061685A879D8D8A839B997367697A89667B
:10349000504F8EB99B9474919676715A8BA89996D9
:1034A00088949A7D6B68788F775E4F83AE92865E44
:1034B0007B8E73725B7EA59E91737B8B726264714F
:1034C000887E63517EA79A956B8192878B6A7DA3D4
:1034D000ADA286848B816954677B7C765985AC99D3
:1034E000955F65747982697A91A29E8A89897C67E1
:1034F000545C6A777C668BA3A3AA797E797E81630C
:103500007B8FA7A28E8E8A83735957565E746591FE
:10351000A39D9E6E72687178627E8AA1AB96907947
:103520006F6F5F5F5863685A93A3ACB27F857D8CE1
:103530008C6A7D7FA0A7A09E8D8E7C6C685C615D8F
:103540004A788EA4A878796C85856974698DA6A15E
:103550009C837669646D646D5F49717EA9AF8988CB
:1035600070909583856A8199A8B29A886F727D72EE
:103570007C594366719CA08A7F67848280815E72D9
:103580008397A8948B6E69716E825F577076A99845
:103590008E846E8F85958F7079819CA6A49A787A97
:1035A0006E718560656B6F9682836E6B877C92818E
:1035B00074797193999D9773725E64715C73717D78
:1035C0009482896E7D8480988889828B9BA0A69640
:1035D000807B6A7469667B738A8881746A7777896D
:1035E00087817C7286939A99807066616967757E1F
:1035F000889A968A6F6C6E7989868F8482909AA752
:103600009C8C79696B626C787C8A8C917D6E686821
:103610007977898C80868999A09A926D5D505579C9
:103620007E8D898F8F706B596D7F7A8A878E969C7D
:10363000AFA69E9071675462777D92878D7E6B6591
:103640005C747378807A8181959E969681756257B5
:103650006F8597969499837A65646F69797880838A
:10366000848C858273635F4E526C7F8C8F9A918BB2
:103670008B7F8E8F90958A8981828993998E8775A9
:103680005E6B7F96A6A7ACA5A4958E8F837E808166
:1036900081838C91948E837351444C607A89908A93
:1036A0007E74656967676E65635E65696E7676735D
:1036B00069594F4F5E6E6E80878883797E798387E4
:1036C0008B908C93969CA2A3A2937C6D6F8796A4FB
:1036D000AFA6A698857B7B86818386838176746C72
:1036E000716E6862575C6D808E9F9EA696878787F5
:1036F0008D898E888D9692958D8A827A7D717A8B4E
:10370000999DA6A9AA9E857772797D8690938C83D0
:103710007A6F65686E6A616C797C767E81898C7B54
:10372000766F6E6B78858586857E79757B7C766411
:1037300056555B5E6A79838D7F83848282868B880F
:10374000908B817C72737B7F7D7D828178767D7E9C
:1037500089898D898A918B8B878686847B7673781D
:103760007878807F7E7570727C97989B988C8A871A
:103770008B8886909185858687888383888C8C83C7
:103780008072757D89989AA9ADA79B96968F8A8736
:10379000818A8B79716C67606263616363666D7740
:1037A000818F938981828B867B736E635B5D5B57B0
:1037B000555C5C656B6C77797D8699A4A0A19B9D17
:1037C000988E8C9197988D7C746868676E6F738102
:1037D000746F6D6E757581848E8F878481888C8CF3
:1037E000897F7A86817C79737970757B7F8F9295DA
:1037F00098A2AAA6A8A6A9B2ABA19589867D7C7F2E
:103800007C83847E7F7E7A716F70727883858185F8
:10381000838078746D6E67646868736D7073747B91
:103820007F8481817B7167656D6D767D777372753D
:10383000767A7E80868C86837F7E7E797F868C8B6F
:10384000817C7B7E7D777573747A77737B828886C3
:1038500087857F7B757C848B908D8D87858D8C8C07
:103860008C908D867C79797F8B8F909090858685E2
:10387000879294948F89827772778081878B8985EC
:103880008281888E8C8A888D8C8B857E7F7E7B74EE
:103890006E6D6B696367707072737C85827E7B75F9
:1038A000747375726C716F716E67696B706D6D7A20
:1038B0007E8486868C898A8B8E9BA2A49B9391871B
:1038C0007F756D777E7A736A6B6768707B898A898A
:1038D000877F818B979D95939791887D7574706B89
:1038E000696C71798184898A90918F98A4AAA39C2C
:1038F00099938B8884827F7976716D676A7172740F
:1039000075808B8A908F8E877B7E7F807F756D60C0
:103910005A5A5A60616873777F878F969393919014
:103920008D898C8B8C887F7768646D70746C676F01
:1039300079858E9CA0A29F95928A837F76706C6F0A
:103940006D6667656767676F7B8A91959B9D9BA096
:10395000A0A09A928E837D76777168686672797975
:103960007F838A8D8F919399A0A8A29485796D68A1
:103970006A6F73716F6D71716F76797C7F8B9296C0
:1039800096959C968B8380807E7B7C7C79736C6B18
:103990006A6C747579737476737A7E8C8C867C7895
:1039A000787D858887817D7875706C6B6E6D6F7E94
:1039B000878A8F919794908A888F939AA09A978AF2
:1039C0007A756A635E6267707777767C848C90978D
:1039D0009899968C8F87857D7173706662646B6D24
:1039E0007382818A8E99A9A5A59E9FA29D9F908191
:1039F0006E5F5D524A4747505A6D7D88938C919116
:103A000093989297958F8D83716B6261655F6771F3
:103A10007A7C818987868F9AA3A29D928D8171710C
:103A2000655C4D444E5F738290999BA3A5A9AEB58A
:103A3000BEBFC0C3BDB1B3A6A8989B99A8ACADC486
:103A4000C4E1E3E2E5DFC4B69DA39DA098765D4F97
:103A5000442D3E35455A52465341413322312D279C
:103A6000212F1F1A181F0D0D1C243B3E4B565C5076
:103A7000505C6169655D5E5A5E5645403F3D375317
:103A8000576C868C979EACA9AFA7ACA8A4AAAAA194
:103A9000999791949097A0B1BBCAC4C3BDC0CAB650
:103AA000BFC2BFB4B2B1A1877C6D56525B6C7A8E37
:103AB0008E949685827A75837F8D958E8B827C65B8
:103AC0005B606C7C8A96AEADA6A2A49D899090970F
:103AD000908486776D675F6169769BB5B2AFA9A95F
:103AE000938C8F8E8F888C89837E68655543516354
:103AF000818CA1B1AEA195969D968E8B8990888F71
:103B00008477786E60525B7786999F9693827976F8
:103B1000767D7072796C6A5F594E3A3338476278B5
:103B20008F9D93836E76726F776F6D6A6D64585850
:103B30004F3E3D415D7586937874685E5D525E6769
:103B4000686255524C43493E384347596D7F9395BF
:103B50009B8D90A7B4C0B3B8AA99978A8A908F8892
:103B60007F8091A3B1AFA19E888484819E98978D18
:103B7000817C71655D5146454C656F90A5A5A28E0F
:103B800099989DA4A6B1A79F928D8C7A747671782E
:103B900094B0B9B8B6A79AA197A4AFA3A091918009
:103BA000736F5F4A4349516476888682807D92961E
:103BB00097989383706C605F564E403B44546F817E
:103BC0008C80827770777D8E8A85847575776F702B
:103BD000675A5A5B6C828CA4A0999A969DA1ACA658
:103BE0009B9885807A76746B716F77849AA5ACA167
:103BF00092918384899BA097988F857B7873695F66
:103C0000565E6A7D8EA7B4A79C96A4A4AEB7A7A360
:103C10008C8381868C7A715A525B76898C8B827602
:103C2000636D747D8C82776E6666636354412F2169
:103C300022315C77847E746C6878889BA295847549
:103C40006F6A7073645A5C6A799BB0BBB39E8F9045
:103C5000A3ABB7B9A7938681796D6A5B4F444C5A81
:103C600072898A9EA3A7A0A4A59F9B8E7D716C6E6E
:103C7000707170686263666C858B92959F9796A44D
:103C80009BA29F958C7D746D6B6F66686473809941
:103C9000B7C1C3BEB2AAB2AEB3ACA7947F7366631A
:103CA0006F7274716F7172899093897E6F6E798271
:103CB0008379654A3A39393F4B443D414B597288C3
:103CC000A4ACAFAAA2A8A1A3A4958B797A847D8D78
:103CD00091837167687C8C9C9C9997868C94949254
:103CE00092866D63696B6D6964525358688EA1A4A6
:103CF00096938A8C9599928A81848F9AA2A3A39293
:103D0000786D76788891A29F9E9C8C8C8481726756
:103D1000605D6E7571726E66535963778F98998D79
:103D20008B7D81797772605F595C646D6D6C5F53D8
:103D30005F6473777D84767877858F8C8A80796CE1
:103D4000615F616168696868708D9DA9A8959486B6
:103D500088899197827A7173757B7F7C67606A6FBF
:103D6000848FA1A89C91868B808186848271726BDE
:103D70006B6B69626167739EB5CFCCC2AC91969450
:103D8000A3A2A39C91938E919086706869778FA966
:103D9000B9A79A847D7C787D736D584D54585C55D5
:103DA000433A3F4C6E88958D7C746A726F7674606E
:103DB0005C53636B757F7C79798195ADB1B9A99CB2
:103DC0008B8595939588786C5F60656D6D60617586
:103DD000839CB4C5C1AAA28F9386818A827D6D75AA
:103DE0007E7B7C777075798C9CA9B8A9A69380841A
:103DF0007E827B7C82777268625F575F717C8B9278
:103E00009FA18E887C827A727F7C7A767A7E787A9D
:103E10007577857D889A9B97878476737B6E7265AC
:103E20005E5D57635C5D5F4B586571898A9D978BBA
:103E30008C818C8C8781787F7978847F7B6B6676A8
:103E40007D98A8AFAE8E817975746D7D7973767328
:103E50007B7A6D59434C5C759CA7B8A89584738E8A
:103E600091A09B8B8C878F908D8F786A7F8EADB958
:103E7000CBC8A0998C9EA2A0AA9C92786D727772F2
:103E8000644C49475F7E8794857D6D708490A294D1
:103E900074635E64656C73584B49516F798E8B7A8D
:103EA00065517584888E837A656274797C6A4F4D1A
:103EB000517191A2AB92887B7C959DAF9F847C7160
:103EC00080847B7B60575F74A6BAC8C1A5917E923F
:103ED0009F9B9C837F78666F6C6F583B43476484DD
:103EE0008B9A91929293AAA6ACA18A7B6C778074EC
:103EF00074635F6D6D8D9AA1A1979F97A4ADA59CEA
:103F00008A837A72736B736C4C484C5F7477898ABE
:103F100084807E8D888B8B8279696A6F665C505154
:103F20005F5F7592A7B3A6A4928A92949C8F8580B6
:103F3000766B5B5A584338425270818E9A918975DC
:103F400089908D9B9899857978746C65565B6474BB
:103F500098B0C4BBB3B39FA4A4A49F8C8D84807974
:103F6000706F6652505B6A838C9A9E9B9493A09A62
:103F7000988F85796A686D70685E545D64769399F0
:103F8000A79D96928C9293988D7F706A5E5A58592D
:103F900052404850677D899888806E6A878D9897CF
:103FA0008E857570767979695B6A708DABB7B49ED2
:103FB000978788908FA0917A756C7B7A747D655015
:103FC000535D7D96AAAC92887685969295807C7E8C
:103FD000728182847A5A54526787A8BFBCAFA29379
:103FE0008F95A6AD9888787781767C705743394C49
:103FF0005F8193978B7B828AA2A9ACA68B766B6834
:1040000070786C63554F5F6D87979790878688A30C
:10401000AFAE9F7F776C696663635D4840495F7EA2
:104020008B908984898C9AA09B99877D777678700C
:1040300061504A525F778FA3ACA7A8A4A2A4ABA4F7
:104040009D92908B80766864584B444B5E6C7C8A62
:1040500095999A9D9BA29B9D998E897E786B6263B0
:1040600062645A657380969FABA49F96918E8A8CEA
:104070008C86786C615C5D58564C51595F78899F8D
:10408000A3A190878B8890918E83776B66686C6C08
:104090006C6D6D6E7C8D9DA6A4A396928D8C928E78
:1040A0008373655B595A62625D595159707F939968
:1040B0009C939493939F9C9C8C7C79787E8283794B
:1040C000726C6B7E8D9A9A9E9489898B9BA1A29229
:1040D0008B847A77706E6157565666788A8F887DA2
:1040E0007478818F9AA29C8E85807D7D847D706A94
:1040F00066727A868B89847B767C8B95999383759F
:104100006A69676B695E5A5863707D898B87827EA6
:10411000828D999B98908779747679796D6A6A76A1
:10412000808C9899958F8C8B919A9E978B80736FCA
:104130006861605C5E5B646F78848A8C8B90969714
:104140009896948F86756D6D71716F736F76787DAB
:10415000868E9A9C9FA1A19F968A82796F645954FA
:1041600051555959646C78808A969DA9ABA5A2A136
:10417000A2998D817A7571665F5F6975797F849286
:10418000969A9D9EA09D959189837A6C6059595706
:1041900056545A6772787D828C9096999A9A968E28
:1041A000857E7B736B66616A717977748184888F91
:1041B000929796989793948D867E756F655F595206
:1041C0005F64676D707E8692989BA4A3A4A7A2A04B
:1041D00097908C80796D6B6B696D6F716F727E8853
:1041E0008F96989690888784827C706965666465EE
:1041F000625D646770757F90969D99939691908BA0
:104200008D8E8384807A7B76736B677279838687E1
:104210008F8D908C8A8A84847E7C7C7E797578737D
:10422000787375777D8886838A8F949C9A9D938D09
:104230008B88877E807B706B6973716D73787E79F4
:104240007F807F897B7F7775796D807F6F747278CF
:104250007F859A9DB5AFB6B4B4B3A9BAA9A799980A
:1042600093A4A2A8A2BABFB6C0C6DEE5DCB6B7ABBF
:10427000C4A3B3A58B77676A4B5C38435B53566125
:104280005361473538493F3E32101C1521223D3CD1
:104290002A1F1E1F3844343E4B4944444035252BC9
:1042A0003546435565647161707E8286849CA4ABFB
:1042B0009C8D94989EB0AAB5BBAEB7B1ADB7C1C343
:1042C000D6CDC3BAC3B39692929D929B99A39D8774
:1042D0008287858878636D7B846D70716E76717B63
:1042E0008C8D85848D8B817A7F827F7F8484898485
:1042F00084A2ADA9A7ADB4A5969AA2A49A8473830B
:1043000081757267646F757C83969D9B9E96998B71
:10431000999A83808284766869747E88858FA8BC28
:10432000AF9C989E9F8C7A7677685B6467656E72A7
:10433000787B83938C8B9995938E857E7C7E7D6D27
:104340006355525A57596578787D7B797D827259C9
:10435000525147444049464252545D656B747773ED
:1043600072747661544F53514B51495A6B66708445
:104370009593838C989F95898486857C7A767875C9
:10438000747E808684838E8F908A989A8A867E74C3
:104390006E6B66656E7A828E9BA69A92969AA39BA6
:1043A000969B9A917D78786D698199ACB9B7BABAC4
:1043B000BBB9BFCCCEC6B8B3AC937E625057647461
:1043C00089A1AAA5999DA6A7998D8275654D4E498B
:1043D0003636435869798788928F89939791857487
:1043E0006C593F353231385570879D9E979B9DA003
:1043F0009C978D88867B6B614F484A556B7F9CA646
:10440000AFB0AAACAEB3AB94908677695F615D61E3
:10441000748EAAC6B9AAA6A0978E8D898882756B5C
:10442000645A4F5570889CB0BBBAB0ABB1B1A8A06C
:104430009F988D7F6D5A534749617997A2979AA0AB
:104440009890858073665F504B473C31324360786B
:104450008E9A94867C808987817E755D4B4342422B
:104460003A536E829DA1A1A19D998F8C90908F8AC5
:104470007F7765544A4C687D97AAA8A49A989EA411
:10448000A49B918376665E6050486282A2B3AFAB14
:104490009E9587797D7B756F616565585950627807
:1044A00082A0B1B7B2ACABA09F9D9A97887E70678F
:1044B000665F627E9EBCC2BFBCB4B5A5A6A89A8A40
:1044C0007268615B584941556380A1B1AF9C958E7C
:1044D0008684827E6F594F45413B333955718295B1
:1044E00096949E998E8F8F988D838275756D59568F
:1044F00060748CA4B2A69C9A9D99999D92817064D7
:1045000068665545466A839BADACB0A48F7F747EC8
:10451000786A68616569615E5F6B7D93B0B5B6B7B7
:10452000B7AFA7A8A7A69585837C76654E627C8FDA
:10453000A7ADB1AAA097828D907E766A686F6A61F6
:10454000544953668094A2978B836C6F6E6E65544A
:10455000515058594849596576879AA89D92776F66
:104560007D7A7F7A7678766C605A5764788FA7AEBA
:10457000AFAA978E898A85717376797B6759525F66
:1045800074829CBABCB2947979746D6765636B6907
:1045900069706C6D7184A3BECDC9BCAC9D9CA49D9B
:1045A000969188897C7069666A768DAECAC9BFA00B
:1045B000919486807471756F69625547414966822E
:1045C0009AA19181777371726B66625E60595550E2
:1045D0004951547196A6B19B807A6E757E7D8D8807
:1045E00083797776655F607A91A3B6B2AB9A8B8A4E
:1045F000827E7D75777B787B6D6F686B8DA2BFBC8B
:104600009F8E7A6D71736E6C675F676F6F71686C88
:104610007F93ACB4B7AA97918C908E8A8D857A7867
:104620006C6B707279879AACB0A29B8C86817A7918
:1046300078777173706E69646871858D93938877EC
:104640007175747062625C5D6265726C615E6A89CC
:104650009E9F968777747578808281766C6C6F7276
:10466000766D6E7E859DA4A59A8D8D7E7C797A77F8
:104670007171747E766C687795A19C948D7D7C7643
:104680007479756F6B79838B918A7B81939EACB1C2
:10469000B3ACA19E908B8B84868282918B857B6B41
:1046A0008494A1ADA8A7978E7974776D6B626A75B3
:1046B0006F6C63585F6A768381847A7573666D6206
:1046C0005C5C59656E6B6455516A788893979184E8
:1046D0007C6C767B81887D85837C79797B80878FF4
:1046E0009CA7A99F9D877B7C6E7A7B828E7F7A6E4A
:1046F000656D889A9FA19C8F85796F7065696E73CF
:104700007D7A776C686B758697A9B8ADA19C8C8A09
:104710008C8B9389848073736C656B7E8D9FACAE3C
:10472000AA9C8D807C7D878C8C8779706B66667087
:104730007A848F938B7D756B6A69717872756D67FA
:10474000685D576475849A9E9B927D70656B737FDC
:104750008280796C65626165788396A6A49F928455
:10476000797A7982837E7F6F6B645A5C748C9EAC9D
:10477000AAA28F7E74757C82868484807978746F17
:10478000758291A9B9BCB2A18C878A9099948E82C6
:10479000746A6259617A90A5ACAFA2908271747903
:1047A0007D81817C7265594F5163748C9A9A927D98
:1047B0006C64666F76736D6D625F5C5044536B869C
:1047C000A2A9A9968075727F848B857D7A6F685CBB
:1047D00052566E83A2B8B1A6958782878A8B858050
:1047E000838178675045597CA1B9B8AA8F7B727BC9
:1047F00086888B83807A756F655B667D92AFBCB966
:10480000A694898B939B9E948A827972624E4D63A3
:1048100084A9BCBBA990827C848A8C867A78736DCB
:10482000645348586D8AA2A29A836B666A767D7E2D
:1048300078726A625B4838415D7D9DADAA987E7250
:104840006F788384837D7D74665545475C7A9DB21D
:10485000AFA48D7E7D7F8E918A827F797168514D64
:10486000587593ADB5AD9B8378747C7F86888885B9
:10487000767066626E8093A5B7B2ACA1968F919464
:1048800093928F8E8376604E4E62849EB4B5A494CC
:1048900089827F85817E7B7B76695A484C5E7184F4
:1048A0009498928676726A6E74787E7C77655644A8
:1048B0003D4D6C8298A199978A88817E7B777E7F17
:1048C000807666574A516C8495A29E9A8F8A888119
:1048D000827E838887827263514B5E7F97ADB0A2E0
:1048E0009B8D857A77757B858A89776C5D5E6E890D
:1048F000A3AFB3ABA6A39F99999490999E9B8972FD
:104900005C484D6A8DA2ACA59A9896938982797A73
:104910007E827B6A56414A5C788D928B7E7878766F
:104920006E6E6A6D767E7C695A4237436180949DD3
:10493000928F8989827B797882878F8170553F4FEA
:104940006D8DA0A5948A83868C84827C8489928DC7
:104950007A6B524E64869BABA5978F858177756E77
:10496000757C8383776C5B617594ADB7B3A7A094B6
:1049700096918D89868F939385796351536D91AA12
:10498000BAB3A99F9790857D7A7C7D847F6F5642CC
:10499000455C7D93A39E91877F78706B66707B8466
:1049A0008075634C434A6781959D98918F8D857F73
:1049B00075767A7C7D7A6C5245516E889EA4998872
:1049C0007E7A7D817D7F84848481786C574E5D748E
:1049D00090A4ADA79D95857E747281858A8E83761D
:1049E0005D586D85A0B1B7AF9D9D968F93878F96CB
:1049F0009EA59B8D73575563819FABB09E918B7E17
:104A0000817A767F7B8181786C4F4D6175939F9E13
:104A100092746C59585F576C697172676A53484E4B
:104A20005C7E9AACB09D947F777A6F78767A827F3D
:104A30007C644E4E5E819EB4B6A796867A8384854A
:104A40009393998E837559484E6A8CA6B3AC988916
:104A5000767377798186848A847B6C565D6E8EAEA0
:104A6000BCB9A792837780898F9C9EA196877D5E33
:104A70004C51688BA8B3B0A09187868D87918A84AA
:104A8000857771544345576F88999088725D586453
:104A90006E7C8D9194867A634634415F7C9BA69BA5
:104AA0008477646D79889A9793857D6A544D5E7298
:104AB000859DA29A826C625F6B7E959DA2968A7F8D
:104AC0006D5F58687A97ABAD9D8C70686870888A06
:104AD0008F8889877A6E68758599B2BCB49E7F6924
:104AE0006E7994A8B6B09B93847C6C69728097A908
:104AF000ACA28F7462667C8A908B7C736B6359580E
:104B0000657990A2A7937859454F6778847B6B604D
:104B1000626D644E495B759CB7BBA88F766C7890CC
:104B20009C948069605C574F46526C8CA9B1A990E7
:104B300070626E88A0A6A38C7C7775664C45537313
:104B40009AB4B6A38471667E999E9F877F7E7A7998
:104B5000685F687B98B2B6AA8B7C7C8DA9B2B7AB34
:104B600099918E8C75574F5A7B9CADA88B79737732
:104B700095A0A1927E827C786B564C52668193946C
:104B80007A5F56546D7E848A7F807E7B7A614B4843
:104B90005E8297A1947A6F6874898D91867E827CFB
:104BA000786B595C6A87A0AA9F826C666C7B86884A
:104BB0008B84878A857C6457597394ABA7968780CA
:104BC00082838E877D777B837E7B6F64677B97ACE8
:104BD000B1A591858D90979C9CA39F9F978A765FA6
:104BE00052647E98A8A0968689898A898281818864
:104BF000847967544E546D84948F86747175777B75
:104C00007075767C7C7C78645247576E838E939166
:104C10009499949384807B7C857B776459565C6EF1
:104C2000787E7D7A7B87878E847F878A9A96948721
:104C30006E5D58697A81817F7E898E8F90848582AE
:104C4000909996917971727D919795938A8B9190B5
:104C500095908D9499A3A29C908074727B83858596
:104C60008A94A09F9686746E7685908F816F646714
:104C70006E746F6661636A757871665C64727E8B50
:104C8000877C74696E70777871747C888E8C82787A
:104C90006B79848C8D7F7C7783908E8B80706E7225
:104CA000777C7672717788949F9B91857D838A86C5
:104CB0007D73707F8B908574665C6F859AA0928AF5
:104CC000868D9B9890877A83888D907F7B74798D71
:104CD0009BAEAC9E9082868B85867A7C8B8D9081F4
:104CE000766A656F7D8F92888280878F88816E61FA
:104CF00067677067574F454F61798A8B82797480F7
:104D00008B8A86797C868C8F83705E56596B7B8408
:104D1000807B7D818785837E7D83878982746C68B3
:104D20006976858E8F857D79848A8D8B869195981D
:104D3000938371635F6A7B85898182848E9A9C9F4D
:104D40009A9B9A999B938D827A797F8C94978E8087
:104D500079767B8286939FA2A19A8F81766E6D77FA
:104D60007979777173706C6862686E757B7671663D
:104D70005F6164727E8385796E69686F7279818AFA
:104D8000908E89827B79757A8282837E7D7D7A7925
:104D900073777F80827B7774737B7E82888B8F8D25
:104DA000847E787772727E8A969690867572717517
:104DB00081888C8C8A8D8B8A88828D92999A939027
:104DC00087868583898E969C988C817C7A77828E63
:104DD000999D9596877F7E7A7C7D7B7874757776B2
:104DE000766E70777A7C736D645D61656D6E7173DC
:104DF00071706D666B6F75818C9C9B99928C8A83A8
:104E00007D7676737172736E6B686776818D8D8631
:104E1000837D8082898A8A88837F7A716967636EDD
:104E20007B8B999A9A8E8787898B8D8E857E797CEC
:104E30007A7E808992969B9496979A9FA09C958E55
:104E40008D8A847D716B6971818E9795929291960E
:104E50009A978D857E767576736B625B616B7579DB
:104E6000726F696B737C817C7B74706D676160624B
:104E70006C7C8A9594948E8785828283817E7874F7
:104E8000716A68686D767E8382808486868689886A
:104E900088868280766B63636A737A89949D95872E
:104EA0008483878D8C897F7373707576767F889302
:104EB0009A9B9D9C97999C9A9E9F9993887E7772C6
:104EC0007581888C9398999896918C828287837C3F
:104ED000766B68696C72767373756B6868646D6CF9
:104EE0006A7274726B66635F62646F7A808A8E9492
:104EF000918F92918C878480756F6B676B6D7071E9
:104F00006E71758088878783888D8F97968B82775F
:104F1000777A7C807F818186888584818285858778
:104F200087847F7F838588888E92898588878D9105
:104F30008E949798928C86817A79818485888E8FD9
:104F40009393928B85868B8E8783786E6E7278783A
:104F50007673706B6A66686A686A6C707777757367
:104F6000716F6D70747E858E8E898785807B7B7F67
:104F700080777473756E6F76777D7D7A7F817F829F
:104F80007C7D818184817D797572727A7C7F7E805F
:104F9000898A8988898884838485837D79808384CC
:104FA000878D96928986878F9191949A9D989495F2
:104FB000969389838487848082868A888280868685
:104FC00086888A867E797A7D7C7776756E6C6A674C
:104FD000625A55606B73727274726A686F767B7C0A
:104FE0008182837C7C7F7F818283817E7C7B7777DB
:104FF0007A7D7D807F7D7C7B7C7B76767D838889D6
:105000008C8B867D7A818686888B94918984797150
:105010006E6F74787B7F8182828A8E9398979A963E
:105020009395918D88878782848A8E8B8482888CE1
:10503000898C919696908B8C8E89898D8A7E736FE0
:10504000737B7E7D7C7776726D7173716A67686938
:10505000696B71726F6A6D737C81868D8D898780B3
:105060007A7B7D79787673706A6C707475777980E5
:105070007F84837F7F7B7F7E8389887E7A7978783F
:1050800079797C7F858D8D8F8C87868381838484DD
:105090007D7B7C83898B9294938C86879090909172
:1050A00091918D8E8B8A88898C8A89868A8C8E9044
:1050B0008B847B7A808B8989867F7A70737C7E76FD
:1050C0007777746C666869635A5B606367696B6D58
:1050D0006C717881868B8E908E878483807E7E7BB8
:1050E0007B757275797B7E7C7C7B7C7D7E84837F07
:1050F0007D817F827F7F7F7E7E808082807F8284B1
:10510000878383827F7C7D787C7B7C7E7E81888C9C
:105110008E96969890929495908A87878B888985A9
:10512000858280868A8D8E8E8D918C8C8B8B8E8DD8
:105130008C87847F7F7B7B7C7D7873726C69666DE6
:105140006E6B6364676968696E6D72747E81858356
:10515000838581807B7D78716E7270706D747776D7
:10516000797F8483828082828581837C7A777B7C4D
:105170007C7A7A7D7D84848A88908B8A8C8A8584E7
:1051800083817E7B7E77767887878D9195918E90CF
:10519000999F9A988C8988878589868A888C8F8D33
:1051A0008C8B8D878C8A8D8A8884827D7C7E7A77B1
:1051B000767877777673716F707374756F6A676CD2
:1051C000676866686D707379807A82808886848863
:1051D00089817F7F7A7874777677787B7C77757230
:1051E000717577807E7F797D838180828B898984C8
:1051F0008983807D787F7B7C7B79787677767B77F7
:1052000080868A8E91979995919A9F9A958F8B898E
:105210007E847E848289888F908D9692958E918BE4
:10522000948E92908F85807A787F76787576737475
:10523000726C7273726F636D6461625B62686974D1
:10524000797C7E807F7F80848A8688828279797863
:105250007677757171737073747D83838A978C967A
:105260009088927C7A747E7C788179828183828432
:10527000828181848383837C7C77827E8284868919
:10528000898A848693948C908E958A8E89848B8E5D
:105290008F9590938F8F8F858F7D90929081818550
:1052A000797C7A787D78717977766A6B706E6681B1
:1052B000827D7D918E7C78635A5859404259809AFC
:1052C000B9B6B9D1B8A69B94A08265525165615513
:1052D0004B66756C563D43545E737C93C4DCC0B919
:1052E000BFC2AC9C87727667637F8E8A967D735D42
:1052F000665A5C6A798668666C6F637A92A4A2AE1D
:10530000A2A7B1B4AEA0AFA188716D625C4F59562F
:105310005B5B6D99B3CBB9B4AE9E989C948A7E7159
:10532000706C655851465A614B4C50555B6F879570
:105330009791969B9B978A84858880989B8F8C7980
:1053400072556355494B4A41415D6B818D9F99ACC4
:10535000ACAEAD90898A88908B878C7D7D7B785EA2
:10536000645C5363777D738185817F95A2ADAFA225
:105370009888877B7C79747D7D857D78797E81872F
:105380007F887A7E889099929C91938B979097953D
:105390008D87746E686B6D775D6764677581887DD6
:1053A0009198928676817C6E716671727481897E25
:1053B00073797371717B7F80868E8C938D887F7AF1
:1053C0007B797E707A73626B787B75727F7F82895E
:1053D0007F838992959CAD9B8A7879766769738182
:1053E00089978897888575706F6D6C5B6A64716D3D
:1053F000839999929F978D9A8E868481828C8D88CD
:10540000796F75756F7C85868C8C7C86949594926B
:1054100088857C64635A616B687C908F847E6D6440
:10542000657175828D8EA4A6A5908C877C7571752B
:105430007A7F6F7A7C7D717A857671605F5F626E4C
:1054400075819BA2A8A69B9D8E7777817C7D8184A8
:1054500080807D807D71777484857E7F7B83909052
:105460008D8C81756A6B74756A74808D92959B9230
:10547000837770676F66697D8396999F998D958C08
:105480008B8F928A766E6F6F7F837E857D7A777D34
:1054900075666375858C9388857E6C6A747C7E7D69
:1054A0009085848C85827D796F7D89867C7F8489D7
:1054B0008B867A736E636769756D687B8792A4A12A
:1054C00092867873767975768591969D9A94909167
:1054D000837C84817A636365697A878F8B7D6E7440
:1054E0007A7C72768790989B928F8C857F7F7C7573
:1054F0007671727D82807F8282787A787D7B787BFC
:10550000828D8A8E999A857F817A655C626D7C8AAC
:10551000898F8C7A7676777277767D8185848084A0
:105520008C908E95948C7F756A6F6F6D7D7B79748E
:10553000696E777171868C8F8C8D979583868D7F40
:105540007F80807C7A837F7D8A828281818A817953
:10555000727783787A8D8A8C847E776964626779C2
:10556000868994948A7D7F7F7C7D7C7D797D776D33
:1055700084929397989D9586786E717775787D7FE4
:105580007D777375766E757F828490918C87868D1A
:105590007F7C757376747E7D8083858585878B900F
:1055A0008C7C79786B6D727E7B7C807D7B6D677483
:1055B0007D84919494887D7F7B7780797B808A8DB0
:1055C000878A868E8E8B8A877C6F696C6E738081EA
:1055D00083817B777E7C75747E807F898F929595A1
:1055E0008B878077655E656B747D7E8A988E8D91E2
:1055F000958D80807D7578827A838F8A8C8C7D737F
:10560000707071717F7F757777757D83807E7D7F08
:105610007E7C8185929C9493958D85777874727B3E
:105620007672706C686C727479807E787D868A8CF4
:10563000969493978C8377757B797D7F828A807926
:105640007E818683817A797D79767E85837E7F7B74
:105650007278757B868A938A88817A7F797A7A7460
:1056600076767578778E9A979D9390857F7B6F7805
:105670007D7C7B7D7F7C7B7B767C807976767C8075
:10568000868F92928F8780757175797A75797F7D13
:105690007B7E868B8D928A827E7871707C7F827C05
:1056A00071717475787E82858A8980817F7E7D8024
:1056B000837F8786808388919696938C86817C777A
:1056C0007A7F7F79736F727470737C808080807E44
:1056D000828C9094948C827D746D707777757B7DCD
:1056E00081868886858A89817E7F76757579838CA7
:1056F0008D84817A75767C78777F7D787B807C80DD
:1057000089858383837C747B889194958D8B8A872C
:10571000837D7F7E7C736A6B6B666974797E838818
:1057200082828B9496999489847877767A8284861B
:10573000847F7D7874757980817E7E7E7F8083878B
:10574000888C847F7A77736F777A80868685837D6D
:105750007F7A797973777373777E8D9192918F8B3E
:1057600086837E8287847D7D7A7A75747777747379
:1057700077737A7C848D95948F887C79757878831B
:10578000857D7D7C7D7C8289908E89837D7B76760C
:105790007F85807E7874757577778087817F7D7C43
:1057A0007A7B8088878A858086808690938F8C8696
:1057B00082817D7A818681786C727371757A787551
:1057C0007778798189969F9A94897C76726F7374C1
:1057D000797C76777F84828B8E8D897F7E787B7CC7
:1057E0007F8386847F7C76797E807E7B7477777BEF
:1057F00088908E897E76756F707E8783898A8C8A81
:105800008486919386827F7D736E6F7B7B787571C2
:105810007672747C838189898E8F858385867F7A71
:10582000747C7B77808B8E8F827C7D7A7E8086866F
:10583000807B7F817E8188837F79737670717C889D
:105840008E8D8B877B76757B77727472787F85916E
:105850009A9591888A857C7D81827B78757976742A
:10586000777B7A78737174737F8A95948A82827E4B
:10587000797B83867E777A8181808A948D86818107
:105880007D77798688807B7577746E727C7C7A757B
:105890007A83828A928F877C767D787882888889DD
:1058A000828487807F898E8780777777777D8586EA
:1058B000827970726E6E7A878788879192878489E1
:1058C000897D7068716F6E7B8887878383827B8018
:1058D0008A8E877F7E84817B83938B83736F7270C4
:1058E0006B7781858983847972707C7B7A7A8283F5
:1058F000858A929E99928487878081847E7970665A
:1059000067676B7682818076787E767A8D958D84D6
:105910007D807D7D8390948F8383827A7C85857B57
:105920007C767A767377868B867E7F897F74777EA6
:105930007678757D86868E938F857A757A7378866C
:1059400090918B807E7F797A818A8A807477737058
:10595000787F7D7B7672756E6C7D89878589939063
:105960008A90999691827C7B77747B827E78747A18
:1059700074747B888880756F7874707F908F8B7F4C
:105980007D7D787F8A90948F88877F787C868180E0
:105990007C7F847E7A828A887B6E73706F7686863F
:1059A00082807D7E797A85898480787E7C788394F4
:1059B00099958B827E75717A87838173726F676F19
:1059C0007B7F7D7B7E86827F86918F8D87888D878A
:1059D0008183827E7971767A7D848D8A83797473EE
:1059E0006B6976818682777F827E869599958A819A
:1059F0007E74717A817E7C7276756C7686888884F6
:105A0000838A85818588857E777C817F8389847F71
:105A10007770747778838F8E857A7A7C787A8C9495
:105A200090887A7777717988898A827E7C726C77A0
:105A30007B7B7A757F827A7B8A918E8684847D7A5D
:105A4000838C8A8278797A777A88877B70676B6BA8
:105A50006F7D8E92948E8C8A7F7D888E8C897D79E5
:105A6000726A738083868283847D7780847F7C766C
:105A70007E807B7B8786837E81848081868E817A0F
:105A8000706E7571788D8F8F877D837D7C838E8A14
:105A9000857577786B6C787F7C7E767875777B8779
:105AA000908A8E898C928A8D87807D7179817F879B
:105AB0008A8B82746D786E6E8084877977706B695B
:105AC000788A939B929290878E8D8E8E847B788F2E
:105AD000837F87837D7770756C637B78898C838403
